:10000000971100009381018813010048130F000825
:10001000971F0000938F0F8723200F00130F4F00AF
:10002000E36CFFFF970200009382C2026F00400260
:1000300037170000834705006394070067800000BE
:1000400083264789130515002380F6006FF09FFE75
:1000500037150000130101FF130545882326110001
:10006000EFF01FFD37160000B71600008327468902
:1000700003C7070023A0E6882380E7006FF01FFF77
:0F08840048656C6C6F20776F726C64210D0A00F1
:04089400785634124C
:00000001FF
